S02700004F6E2D64656D616E642D747261666669632D6C696768742D636F6E74726F6C2E737265632B
S11300000C942A000C94A9000C9447000C9447000B
S11300100C9447000C9447000C9447000C94470040
S11300200C9447000C9447000C9447000C94470030
S11300300C9447000C9447000C9447000C94470020
S11300400C9447000C9447000C9447000C94470010
S11300500C94470011241FBECFE5D8E0DEBFCDBF0E
S113006010E0A0E6B0E0E0EBF4E002C005900D92F1
S1130070A236B107D9F720E0A2E6B0E001C01D9294
S1130080A636B207E1F70E9478010C9456020C944C
S1130090000062E081E40E94590161E081E40E9471
S11300A0590160E081E40E94590162E082E40E9407
S11300B0590161E082E40E94590160E082E40E94F7
S11300C0590162E084E40E945001789485B783600A
S11300D085BF8BB780648BBF0E941D020895609119
S11300E0620081E40E94620162E082E40E94620193
S11300F080E596E4909361008093600011C00E94B3
S113010020020E9424020E9428020E942C02809154
S1130110600090916100019790936100809360006A
S11301208091600090916100892B49F76091620091
S113013081E40E946C0180916200909163000196B9
S113014063E070E00E942E0290936300809362004B
S1130150C6CF1F920F920FB60F9211242F933F9385
S11301604F935F936F937F938F939F93AF93BF93BB
S1130170EF93FF938091640090916500892B09F0BF
S11301807EC081E090E0909365008093640080914C
S1130190620090916300892B41F460E081E40E9445
S11301A06C0161E081E40E94620162E082E40E94E9
S11301B06C0161E082E40E94620180E596E4909320
S11301C061008093600008C00E9420020E94240203
S11301D00E9428020E942C0280916000909161008C
S11301E09C01215031093093610020936000892BD8
S11301F059F761E082E40E946C0160E082E40E94AD
S1130200620161E081E40E946C0162E081E40E9489
S1130210620180E596E4909361008093600008C0D9
S11302200E9420020E9424020E9428020E942C02A2
S113023080916000909161009C01215031093093BC
S1130240610020936000892B59F760E082E40E94EA
S11302506C0162E082E40E94620162E081E40E9437
S11302606C0160E081E40E946201109265001092CA
S113027064008FEF9FEF9093610080936000FF9183
S1130280EF91BF91AF919F918F917F916F915F910A
S11302904F913F912F910F900FBE0F901F90189583
S11302A0982F862F40E0692F0E94C101811181E0BF
S11302B00895982F862F41E0692F0E94C101811172
S11302C081E00895982F862F41E0692F0E94EF0165
S11302D0823009F083E00895982F862F40E0692F3B
S11302E00E94EF01823011F484E0089585E00895BE
S11302F00E9449000E946F0080E090E0089561111F
S11303000EC021E030E002C0220F331F4A95E2F70D
S11303102095FC0130812323208388E008956130F7
S113032069F421E030E002C0220F331F4A95E2F75E
S1130330FC013081232B208388E0089589E008950F
S113034061110EC021E030E002C0220F331F4A9534
S1130350E2F72095FC013081232320838AE008956D
S1130360613069F421E030E002C0220F331F4A9566
S1130370E2F7FC013081232B20838AE008958BE08F
S11303800895883040F5242F482F623479F018F40A
S1130390613431F022C0633479F0643499F01DC0C3
S11303A0622F8AE390E00E947F0111C0622F87E3ED
S11303B090E00E947F010BC0622F84E390E00E94D2
S11303C07F0105C0622F81E390E00E947F018930A4
S11303D029F080E008958EE0089587E0089588303C
S11303E040F5242F482F623479F018F4613431F049
S11303F022C0633479F0643499F01DC0622F8BE31A
S113040090E00E94A00111C0622F88E390E00E9456
S1130410A0010BC0622F85E390E00E94A00105C0FB
S1130420622F82E390E00E94A0018B3029F082E0E9
S113043008958EE0089587E0089513BE12BE0895CE
S113044083B7816083BF089508B600FEFDCF089589
S113045088B7816088BF089513BE089597FB072E5F
S113046016F4009407D077FD09D00E94420207FCDD
S113047005D03EF4909581959F4F089570956195B0
S11304807F4F0895AA1BBB1B51E107C0AA1FBB1FC6
S1130490A617B70710F0A61BB70B881F991F5A950C
S11304A0A9F780959095BC01CD010895F894FFCFEC
S10504B05046B0
S9030000FC
