:100000000C942A000C943C000C943C000C943C0092
:100010000C943C000C943C000C943C000C943C0070
:100020000C943C000C943C000C943C000C943C0060
:100030000C943C000C943C000C943C000C943C0050
:100040000C943C000C943C000C943C000C943C0040
:100050000C943C0011241FBECFE5D8E0DEBFCDBF1D
:1000600020E0A0E6B0E001C01D92A136B207E1F7A2
:100070000E9471000C94C4010C940000982F862FEC
:1000800040E0692F0E94F500811181E00895982FCA
:10009000862F692F0E945101843011F482E0089567
:1000A00083E00895982F862F41E0692F0E94F50084
:1000B000811181E00895982F862F41E0692F0E94D9
:1000C0002301823009F083E00895982F862F40E0C5
:1000D000692F0E942301823011F484E0089585E0A5
:1000E0000895CF93DF931F92CDB7DEB760E081E430
:1000F0000E9452008093600061E081E40E945200FF
:100100008093600062E081E40E945200809360006E
:1001100060E081E40E945B008093600061E081E424
:100120000E945B008093600060E083E40E943E00D8
:10013000809360001982AE014F5F5F4F60E083E4FF
:100140000E944700809360008981813039F462E029
:1001500081E40E945B0080936000EDCF62E081E467
:100160000E946500E8CF61110EC021E030E002C0BE
:10017000220F331F4A95E2F72095FC01308123239B
:10018000208388E00895613069F421E030E002C006
:10019000220F331F4A95E2F7FC013081232B208385
:1001A00088E0089589E0089561110EC021E030E0F3
:1001B00002C0220F331F4A95E2F72095FC013081DF
:1001C000232320838AE00895613069F421E030E040
:1001D00002C0220F331F4A95E2F7FC013081232B26
:1001E00020838AE008958BE00895883040F5242F1D
:1001F000482F623479F018F4613431F022C063344E
:1002000079F0643499F01DC0622F8AE390E00E9477
:10021000B30011C0622F87E390E00E94B3000BC0CF
:10022000622F84E390E00E94B30005C0622F81E357
:1002300090E00E94B300893029F080E008958EE0BC
:10024000089587E00895883040F5242F482F6234C0
:1002500079F018F4613431F022C0633479F06434F9
:1002600099F01DC0622F8BE390E00E94D40011C072
:10027000622F8BE390E00E94D4000BC0622F8BE3CF
:1002800090E00E94D40005C0622F8BE390E00E94B2
:10029000D4008B3029F082E008958EE0089587E045
:1002A0000895883008F06CC0623411F118F461349C
:1002B00039F068C06334A1F1643409F449C062C004
:1002C00099B321E030E0B901082E02C0660F771F14
:1002D0000A94E2F7292F30E026233723B90102C020
:1002E000759567958A95E2F7FA01608384E0089531
:1002F00096B321E030E0B901082E02C0660F771FE7
:100300000A94E2F7292F30E026233723B90102C0EF
:10031000759567958A95E2F7FA01608384E0089500
:1003200093B321E030E0B901082E02C0660F771FB9
:100330000A94E2F7292F30E026233723B90102C0BF
:10034000759567958A95E2F7FA01608384E00895D0
:1003500090B321E030E0B901082E02C0660F771F8C
:100360000A94E2F7292F30E026233723B90102C08F
:10037000759567958A95E2F7FA01608384E00895A0
:0C0380008EE0089587E00895F894FFCF08
:00000001FF
