:100000000C942A000C9487000C9447000C94470031
:100010000C9447000C9447000C9447000C94470044
:100020000C9447000C9447000C9447000C94470034
:100030000C9447000C9447000C9447000C94470024
:100040000C9447000C9447000C9447000C94470014
:100050000C94470011241FBECFE5D8E0DEBFCDBF12
:1000600010E0A0E6B0E0E8EDF2E002C005900D92ED
:10007000A036B107D9F720E0A0E6B0E001C01D929C
:10008000A136B207E1F70E94C5000C946A010C94F6
:10009000000062E084E40E949D0060E081E40E9430
:1000A000A60061E081E40E94A60062E081E40E9473
:1000B000A600789485B7836085BF8BB780648BBFBB
:1000C000089580916000813099F028F08230A9F085
:1000D0008330C1F0F6CF60E081E40E94B90061E0B6
:1000E00081E40E94B90062E081E40E94B900E9CF96
:1000F00060E081E40E94AF00E4CF61E081E40E940F
:10010000AF00DFCF62E081E40E94AF00DACF1F9240
:100110000F920FB60F9211248F938091600083305D
:1001200020F48F5F8093600002C0109260008F9176
:100130000F900FBE0F901F901895982F862F40E0BC
:10014000692F0E940E01811181E00895982F862F5A
:1001500041E0692F0E940E01811181E00895982FDE
:10016000862F41E0692F0E943C01823009F083E034
:100170000895982F862F40E0692F0E943C0182301D
:1001800011F484E0089585E008950E9449000E94DA
:10019000610080E090E0089561110EC021E030E040
:1001A00002C0220F331F4A95E2F72095FC013081EF
:1001B0002323208388E00895613069F421E030E052
:1001C00002C0220F331F4A95E2F7FC013081232B36
:1001D000208388E0089589E0089561110EC021E030
:1001E00030E002C0220F331F4A95E2F72095FC0150
:1001F0003081232320838AE00895613069F421E06F
:1002000030E002C0220F331F4A95E2F7FC01308133
:10021000232B20838AE008958BE00895883040F5F1
:10022000242F482F623479F018F4613431F022C061
:10023000633479F0643499F01DC0622F8AE390E052
:100240000E94CC0011C0622F87E390E00E94CC0096
:100250000BC0622F84E390E00E94CC0005C0622FA7
:1002600081E390E00E94CC00893029F080E008957D
:100270008EE0089587E00895883040F5242F482FB8
:10028000623479F018F4613431F022C0633479F0CB
:10029000643499F01DC0622F8BE390E00E94ED0062
:1002A00011C0622F8BE390E00E94ED000BC0622F23
:1002B0008BE390E00E94ED0005C0622F8BE390E09D
:1002C0000E94ED008B3029F082E008958EE00895C1
:0802D00087E00895F894FFCFC8
:00000001FF
