:100000000C942A000C943C000C943C000C943C0092
:100010000C943C000C943C000C943C000C943C0070
:100020000C943C000C943C000C943C000C943C0060
:100030000C943C000C943C000C943C000C943C0050
:100040000C943C000C943C000C943C000C943C0040
:100050000C943C0011241FBECFE5D8E0DEBFCDBF1D
:1000600020E0A0E6B0E001C01D92A136B207E1F7A2
:100070000E945D000C9410010C940000982F862FB4
:1000800041E0692F0E94B400811181E00895982F0A
:10009000862F41E0692F0E94E200823009F083E060
:1000A0000895982F862F40E0692F0E94E200823049
:1000B00011F484E0089585E0089560E081E40E94F1
:1000C0003E008093600060E081E40E9447008093DE
:1000D000600060E081E40E9451008093600080E055
:1000E00090E0089561110EC021E030E002C0220FBF
:1000F000331F4A95E2F72095FC01308123232083AA
:1001000088E00895613069F421E030E002C0220FF8
:10011000331F4A95E2F7FC013081232B208388E0CE
:10012000089589E0089561110EC021E030E002C019
:10013000220F331F4A95E2F72095FC0130812323DB
:1001400020838AE00895613069F421E030E002C044
:10015000220F331F4A95E2F7FC013081232B2083C5
:100160008AE008958BE00895883040F5242F482FC9
:10017000623479F018F4613431F022C0633479F0DC
:10018000643499F01DC0622F8AE390E00E947200EF
:1001900011C0622F87E390E00E9472000BC0622FB3
:1001A00084E390E00E94720005C0622F81E390E03A
:1001B0000E947200893029F080E008958EE0089551
:1001C00087E00895883040F5242F482F623479F075
:1001D00018F4613431F022C0633479F0643499F05A
:1001E0001DC0622F8BE390E00E94930011C0622F2C
:1001F0008BE390E00E9493000BC0622F8BE390E0B2
:100200000E94930005C0622F8BE390E00E94930050
:100210008B3029F082E008958EE0089587E00895FC
:04022000F894FFCF80
:00000001FF
